00100000         235980592000130003276146001417019  0307080000001500074 DRAMMEN RJ INFRAESTRUTURA E REBANCO DO BRASIL S.A.                    10601202103054900006600000000                                                                    
00100011R01  000 2035980592000130003276146001417019  0307080000001500074 DRAMMEN RJ INFRAESTRUTURA E RE                                                                                000000660000000000000000                                
0010001300001P 010307080000001500074032761460000000723   70000175/1          0702202100000000049900000000 02N060120211000000000000000000000000000000000000000000000000000000000000000000000000000000000258600000000722      3000000090000000000
0010001300002Q 012005437734000407NTT BRASIL COMERCIO E SERVICOS DE TECNOLAVENIDA DOUTOR CHUCRI ZAIDAN, 1240 ANDARVILA SAO FRANCI04711130SAO PAULO      SP0000000000000000                                        000                           
0010001300003R 01000000000000000000000000000000000000000000000000000000000000000000000000                                                                                                              00000000000000000000000000000000        
0010001300004P 010307080000001500074032761460000000728   70000176/1          2402202100000000073750000000 02N060120211000000000000000000000000000000000000000000000000000000000000000000000000000000000258700000000727      3000000090000000000
0010001300005Q 012005437734000407KLK BRASIL COMERCIO E SERVICOS DE TECNOLAVENIDA DOUTOR CHUCRI ZAIDAN, 1240 ANDARVILA SAO FRANCI04711130SAO PAULO      SP0000000000000000                                        000                           
0010001300006R 01000000000000000000000000000000000000000000000000000000000000000000000000                                                                                                              00000000000000000000000000000000        
0010001300007P 010307080000001500074032761460000000727   7000087/1           2002202100000001794048500000 02N060120211000000000000000000000000000000000000000000000000000000000000000000000000000000000259600000000726      3000000090000000000
0010001300008Q 012034020354000110CAIXA SEGURADORA SA                     QD SHN 1 BLOCO E LT 0 ASA NORTE, SN ED SASA NORTE      70701050BRASILIA       DF0000000000000000                                        000                           
0010001300009R 01000000000000000000000000000000000000000000000000000000000000000000000000                                                                                                              00000000000000000000000000000000        
00